:100000000C9463000C948B000C948B000C94AC0744
:100010000C94AC070C94AC070C948B000C948B00E4
:100020000C948B000C948B000C948B000C948B0024
:100030000C948B000C948B000C948B000C948B0014
:100040000C9462070C948B000C948B000C948B0026
:100050000C948B000C948B000C948B000C948B00F4
:100060000C948B000C948B000000000023002600F1
:10007000290000000000240027002A0000000000E2
:10008000250028002B0004040404040404040202D4
:100090000202020203030303030301020408102007
:1000A0004080010204081020010204081020000012
:1000B0000008000201000003040700000000000027
:1000C000000089110B1211241FBECFEFD8E0DEBF54
:1000D000CDBF11E0A0E0B1E0E0EDF6E202C0059096
:1000E0000D92A039B107D9F723E0A0E9B1E001C032
:1000F0001D92A937B207E1F710E0C2E6D0E004C0D4
:100100002197FE010E942712C136D107C9F70E942C
:1001100024080C945B130C94000081111FC01092F2
:100120000E0310920F0310921103109212031092FB
:1001300013031092140310921503109216038FEFFD
:1001400080931703809318031092190310921A03D7
:1001500010925403109253031092550310920B0304
:1001600010920A0310920C0310920D0310920703D1
:1001700010920603109208031092090310920303D1
:100180001092020310920403109205031092FF02D2
:100190001092FE0210920003109201031092FB02D3
:1001A0001092FA021092FC021092FD021092F702D5
:1001B0001092F6021092F8021092F9021092F302D5
:1001C0001092F2021092F4021092F5020895811139
:1001D0001DC01092A8021092A9021092AA021092B9
:1001E000AD021092AE021092AF021092B0028FEFE9
:1001F0008093B1028093B2021092B3021092B402C3
:100200001092EE021092ED021092EF021092A502EF
:100210001092A4021092A6021092A7021092A102BC
:100220001092A0021092A2021092A302089590913F
:100230009A029E3F19F481E0809397028091970281
:10024000811106C090939E0281E0809397020895E9
:1002500050919B025E3F11F480E0089530919C0222
:100260003E3FD1F320919E022E3F21F040919D020E
:1002700041110FC050939E0221E020939D022091D6
:100280009E02921305C0931738F79F5F90939E02CA
:10029000089580E0231798F72F5F20939E02842F04
:1002A000EECF90E0FC01E255FF4F2491FC01E656B1
:1002B000FF4F3491FC01EA57FF4FE491EE23C9F060
:1002C000222339F0233001F1A8F4213019F1223032
:1002D00029F1F0E0EE0FFF1FE458FF4FA591B49114
:1002E0008FB7F894EC91611126C030953E233C9372
:1002F0008FBF08952730A9F02830C9F0243049F77E
:10030000809180008F7D03C0809180008F778093E3
:100310008000DFCF84B58F7784BDDBCF84B58F7D40
:10032000FBCF8091B0008F778093B000D2CF8091C7
:10033000B0008F7DF9CF3E2BDACFCF93DF9390E0E3
:10034000FC01E656FF4F24918A579F4FFC01849190
:100350008823D1F090E0880F991FFC01EE58FF4FE1
:10036000A591B491FC01E458FF4FC591D49161115E
:100370000EC09FB7F8948C91E22FE0958E238C935A
:100380002881E223E8839FBFDF91CF9108958FB743
:10039000F894EC91E22BEC938FBFF6CF3FB7F89433
:1003A0008091850290918602A0918702B091880287
:1003B00026B5A89B05C02F3F19F00196A11DB11DC0
:1003C0003FBFBA2FA92F982F8827BC01CD01620FFC
:1003D000711D811D911D42E0660F771F881F991FB7
:1003E0004A95D1F708958F929F92AF92BF92CF9284
:1003F000DF92EF92FF924B015C010E94CE016B01F4
:100400007C010E94CE016C197D098E099F09683E0E
:10041000734081059105A8F321E0821A9108A10893
:10042000B10888EEC80E83E0D81EE11CF11C8114CF
:100430009104A104B10429F7FF90EF90DF90CF90D1
:10044000BF90AF909F908F900895AF92BF92CF9240
:10045000DF92EF92FF920F931F93CF93DF936C0184
:100460007B018B01040F151FEB015E01AE18BF0865
:10047000C017D10759F06991D601ED91FC91019017
:10048000F081E02DC6010995892B79F7C501DF912F
:10049000CF911F910F91FF90EF90DF90CF90BF9081
:1004A000AF9008952091D3013091D40128173907D6
:1004B00071F49091D1018091D201981741F0E091AF
:1004C000D101F0E0EF56FE4F808190E008958FEF6C
:1004D0009FEF08950895EF92FF920F931F93CF938C
:1004E000DF93DC015C96ED90FC905D97E114F104E4
:1004F00079F481E090E013969C938E93129790E0AC
:1005000080E0DF91CF911F910F91FF90EF900895C0
:100510005196ED91FC91529750968C915097982F4F
:1005200090950FB75E962C915E97122F127021FD59
:100530006095F8942081112319F1282B2083E7017D
:100540002197F1F728E0462F50E0308160FF1AC074
:10055000382B3083E7012197F1F7BA01759567953C
:10056000215089F7112381F08081892380830FBF77
:100570005C968D919C910197F1F781E090E0C1CF5D
:100580002923DCCF3923E5CF9081892BEFCF209130
:10059000D3013091D4012817390761F48091D20139
:1005A0002091D10190E0805C9F4F821B91098F7355
:1005B0009927089590E080E008952091D30130912B
:1005C000D40128173907B9F49091D1018091D20153
:1005D000981789F0E091D101F0E0EF56FE4F80814D
:1005E0002091D10130E02F5F3F4F2F7333272093AD
:1005F000D10190E008958FEF9FEF089590E080E0A3
:1006000008958EBD00000DB407FEFDCF8EB5089590
:100610001F93CF93DF93EC0160E088890E94510122
:1006200080EA0E94010380E00E940103182F61E02C
:1006300088890E945101812FDF91CF911F910895E8
:10064000FF920F931F93CF93DF93EC01F62E042FAD
:10065000122F60E088890E94510185E00E94010309
:100660008F2D0E940103802F0E940103812F0E9481
:10067000010361E08889DF91CF911F910F91FF9075
:100680000C945101DF92EF92FF920F931F93CF933F
:10069000DF937C01C62FD42E152F022F60E0FC01C2
:1006A00080890E94510182E00E9401038C2F0E94E8
:1006B0000103CD2DD12F0C0F1D2F111DC017D107F8
:1006C00021F089910E940103F9CF61E0F70180894F
:1006D000DF91CF911F910F91FF90EF90DF900C94DD
:1006E00051010F931F93CF93DF9300D000D0CDB76C
:1006F000DEB7413021F50C831B8389012227332784
:10070000402F440F440F440F407E502F53705860C9
:10071000452B4A8355E0169507955A95E1F70983CD
:1007200024E0AE014F5F5F4F0E9442030F900F9095
:100730000F900F90DF91CF911F910F910895A80115
:1007400023E0569547952A95E1F749830295000FD6
:10075000007E0A831C821B82E3CF0F931F93CF93EB
:10076000DF93EC01062F142F60E088890E9451016D
:1007700082E00E940103802F0E940103812F0E94CA
:10078000010361E08889DF91CF911F910F910C9453
:100790005101DF92EF92FF920F931F93CF93DF935C
:1007A0007C01C62FD42E152F022F60E0FC0180891A
:1007B0000E94510183E00E9401038C2F0E940103DB
:1007C000CD2DD12F0C0F1D2F111DC017D10729F0D2
:1007D00080E00E9401038993F8CF61E0F7018089EE
:1007E000DF91CF911F910F91FF90EF90DF900C94CC
:1007F00051011F93CF93DF93EC01162F60E088899E
:100800000E94510183E00E940103812F0E94010395
:1008100080E00E940103182F61E088890E94510145
:10082000812FDF91CF911F910895EF92FF920F9347
:100830001F93CF93DF9300D000D0CDB7DEB78C01EC
:10084000F62EFC011082118212821382148224E09F
:10085000AE014F5F5F4F0E94C9032A818981F8E092
:100860008F9FC0011124422F50E065E055954795B8
:100870006A95E1F7840F951F092E000CAA0BBB0B9C
:10088000F80181839283A383B48323FF24C032E0E1
:10089000880F991FAA1FBB1F3A95D1F72370820FAB
:1008A000911DA11DB11DBA2FA92F982F88272B812B
:1008B000820F911DA11DB11DBA2FA92F982F882736
:1008C0002C81820F911DA11DB11D81839283A38371
:1008D000B48381E080836FEF6F0DC8010E94F9033C
:1008E000E82E64E06F0DC8010E94F903F8018583CA
:1008F000E3FE19C091E09687282F2F70F801258319
:10090000A8014A5F5F4F65E06F0DC8010E94C903EF
:100910000F900F900F900F90DF91CF911F910F913B
:10092000FF90EF9008951686E7CF0F931F93CF9314
:100930008C01C62F262F40EE6FE00E9420036FE04F
:10094000C8010E94F903982F907E81E09C1301C09A
:1009500080E0CF911F910F9108954F925F926F9217
:100960007F928F929F92AF92BF92CF92DF92EF923F
:10097000FF920F931F93CF93DF9300D01F92CDB7B9
:10098000DEB7780131E0F8013083618372838383BD
:1009900094832583FA01D8011696CA0108965D0151
:1009A00021912D93E817F907D9F710E000E0409066
:1009B000210150902201609023014E01F4E08F0E3E
:1009C000911C49825A826B82CE0101966C01F6011C
:1009D00071906F01672DC7010E94F90383FD0BC061
:1009E000739480E00F5F1F4F823059F4023311057A
:1009F00041F791E044C0C814D90449F7712C82E052
:100A0000F1CF02331105A9F3F7012581A50165E0B6
:100A1000670DC7010E944203F7018685813019F4F2
:100A2000858180648583F701458164E0670DC70196
:100A30000E94AD03F701018112812381348140813D
:100A4000672DC7010E94710328E048E06FEF670D32
:100A5000C7010E94200310E000E00F5F1F4F672DC9
:100A6000C7010E94F903982F987083FF04C00233D6
:100A7000110599F7BECF0233110509F4BACF892FBA
:100A80000F900F900F90DF91CF911F910F91FF90DA
:100A9000EF90DF90CF90BF90AF909F908F907F901E
:100AA0006F905F904F9008950F931F93CF93DF93B4
:100AB000EC011092EF011092EE0110927D02109263
:100AC0007C021FB7F89480919001811127C0E0E962
:100AD000F0E08491E4EAF0E09491E82FF0E0EE0F8A
:100AE000FF1FEE58FF4FA591B491EC91E92321F43B
:100AF00061E08AE00E94510161E08AE00E949D016C
:100B00008CB580618CBD8CB580648CBD61E08DE05E
:100B10000E949D0161E08BE00E949D018091900107
:100B20008F5F809390011FBF60E088890E94510110
:100B300080EC0E94010361E088890E9451016AE013
:100B400070E080E090E00E94F30160E8CE010E9436
:100B5000950491E0811187C041E46AE2CE010E94D0
:100B6000AD0341EF69E2CE010E94AD0345E868E2C2
:100B7000CE010E94AD0300E010E0980141E060E288
:100B8000CE010E94710300E010E0980141E064E2B0
:100B9000CE010E94710300E010E0980141E060E0A6
:100BA000CE010E94710300E010E0980140E064E093
:100BB000CE010E94710300E010E0980141E068E07E
:100BC000CE010E94710300E010E0980140E060E176
:100BD000CE010E94710300E010E0980141E064E161
:100BE000CE010E94710300E010E0980140E068E14E
:100BF000CE010E94710310E340E0612FCE010E94FC
:100C0000AD0360E1610F40E0CE010E94AD0360E200
:100C1000610F40E0CE010E94AD031F5F1E3361F7FC
:100C200040E060E6CE010E94AD0340E060E7CE0107
:100C30000E94AD0343E06BE2CE010E94AD0324E0CD
:100C400044E660E6CE010E94200320E040E660E733
:100C5000CE010E94200360E0CE010E94950491E045
:100C6000811101C090E0892FDF91CF911F910F91E9
:100C70000895FC0101900020E9F73197AF01481B6E
:100C8000590BBC0186E593E00C942502FF920F936B
:100C90001F93CF93DF9390919902911111C190917D
:100CA0009602913009F46FC08B01F82E8091980262
:100CB000882369F180919402882339F1109292027D
:100CC00010929102109293021092940260919E02EF
:100CD00070E090E080E08251974E0091F002109118
:100CE000F1027F6F28E030E043E151E00E94AD0463
:100CF00080918F029091900290938C0280938B024E
:100D000081E080938D0210929802C1E0C3C080916F
:100D10009502811125C00E9417010091F0021091E7
:100D2000F102882309F4BDC060919E0270E090E05A
:100D300080E08251974E7F6F28E030E043E151E040
:100D40000E94AD0480918F029091900290938C024A
:100D500080938B0281E080938D0280939502D5CFA2
:100D6000D0919E0280918E02882379F010928C029D
:100D700010928B0210928D0210928E02D0939F02DD
:100D800081E080939602C2E085C06DE28091F0021E
:100D90009091F1020E94F903887F89F110928C02F0
:100DA00010928B0210928D0210928E0290918A0204
:100DB0009F5F90938A029A3031F18091F002909176
:100DC000F1020E945405E091890281E08E0F809328
:100DD0008902F0E0EE0FFF1FE75FFE4F20813181B7
:100DE000309392022093910291E090939302853088
:100DF00010F01092890281E08093980202C0109254
:100E00008A02C1E006C01092960281E080939902A6
:100E1000C3E0FD123FC0F8013896ABE1B1E092911A
:100E20008E91981769F0981770F06D2F70E090E030
:100E300080E08251974E0091F0021091F10218C0AB
:100E40000E171F0761F780E00E94E70080E00E9414
:100E50008D000E9417010091F0021091F102882389
:100E600001F160919E0270E090E080E08251974E27
:100E70007F6F28E030E043E151E00E94AD048091B3
:100E80008F029091900290938C0280938B0281E06C
:100E900080938D028C2FDF91CF911F910F91FF9046
:100EA000089528E030E043E151E06EEF7FEF8EEEF1
:100EB00098E10E94AD041092960281E0809399021D
:100EC000C3E0E8CF1F920F920FB60F9211242F9319
:100ED0003F938F939F93AF93BF93809181029091A3
:100EE0008202A0918302B09184023091800223E0BB
:100EF000230F2D3758F50196A11DB11D20938002B7
:100F00008093810290938202A0938302B093840223
:100F10008091850290918602A0918702B09188020B
:100F20000196A11DB11D8093850290938602A09326
:100F30008702B0938802BF91AF919F918F913F91AB
:100F40002F910F900FBE0F901F90189526E8230F3A
:100F50000296A11DB11DD2CF1F920F920FB60F9214
:100F600011242F933F934F935F936F937F938F93AE
:100F70009F93AF93BF93EF93FF93E091D301F091D1
:100F8000D401309749F0A685B7858585968D91FF68
:100F900014C09C918923A1F4FF91EF91BF91AF916F
:100FA0009F918F917F916F915F914F913F912F9181
:100FB0000F900FBE0F901F9018959C91892361F799
:100FC000A389B4899C918589809589238C9386898E
:100FD00097890197F1F7608D718DA685B785558545
:100FE00038E020E0CB010197F1F7822F90E0959552
:100FF0008795282F4C91452309F02068315091F7AF
:10100000868D81FD20958091D20190E001968F73AD
:1010100099273091D101381799F0A091D201B0E011
:10102000AF56BE4F2C938093D201828D938D019742
:10103000F1F7A389B4898C919589892B8C93ACCFD6
:10104000868D8160868FF1CFCF93DF93CDB7DEB7EA
:10105000C455D1090FB6F894DEBF0FBECDBF78944A
:1010600084B5826084BD84B5816084BD85B58260AD
:1010700085BD85B5816085BD80916E00816080935E
:101080006E001092810080918100826080938100C7
:1010900080918100816080938100809180008160D7
:1010A000809380008091B10084608093B100809132
:1010B000B00081608093B00080917A00846080935A
:1010C0007A0080917A00826080937A0080917A0021
:1010D000816080937A0080917A00806880937A00A2
:1010E0001092C100109271031092700310926F035E
:1010F00010926E0310926D0310926C038DEC90E0D1
:10110000909373038093720390916203963108F079
:1011100047C025E530E030936D0320936C032BEC42
:1011200030E030936F0320936E0320E930E030937A
:101130007103209370032091680084E0983048F098
:1011400031E09E3008F430E081E001C0880F3A952C
:10115000EAF7822B809368002DE630E0983050F05B
:101160002BE630E09E3030F02CE630E0963110F087
:1011700030E020E030936A0320936903292F30E0A8
:10118000983008F043C281E001C0880F9A95EAF7D1
:1011900080936B0380917203909173030197F1F731
:1011A0008091700390917103892B49F1E091D301F3
:1011B000F091D40123E0E635F20709F1309739F0D8
:1011C000A389B4899C918589809589238C9380918A
:1011D00074038E7F809374031092D2011092D10118
:1011E00086E593E09093D4018093D301E091690365
:1011F000F0916A03808190916B03892B808385E451
:1012000091E00E94390610928C0210928B0210928B
:101210008D0210928E021092920210929102109200
:101220009302109294028AEF90E090939002809340
:101230008F021092890288E090E090930A018093D7
:10124000090189E090E090930C0180930B018AE002
:1012500090E090930E0180930D018CE090E09093CC
:10126000100180930F018FE090E090931201809322
:10127000110110929502109296021092970210920C
:101280009802109299028EEF80939A0280939B02AB
:1012900080939C0210929D0280939E0280939F02F5
:1012A0001092D5011092D6011092D7011092D80158
:1012B0001092D90122E330E03093ED012093EC014C
:1012C0008EEE92E09093E3018093E2013093DF0190
:1012D0002093DE0128EC30E03093E1012093E0011F
:1012E0009093DB018093DA0182EE94E09093DD012C
:1012F0008093DC0180E00E94E70080E00E948D0086
:1013000010928A028091F0029091F1020E9454059D
:10131000811189C185E591E00E94390680E88093BA
:101320009A0281E880939B0282EF80939C028FEF68
:10133000809313018093140180931501809316010B
:1013400081E08093170184E0809318018EEF8093F1
:10135000190180E980931A01AE014F5F5F4F1A01B6
:10136000FF24F394EE24EA948FE0E4E2F1E0DE015E
:10137000D99601900D928A95E1F761E070E080E0E6
:1013800090E00E94F30180918D02882389F0809182
:101390008E0281110DC080918B0290918C02019779
:1013A00090938C0280938B02892B11F4F0928E0221
:1013B00080919302882389F08091940281110DC05D
:1013C0008091910290919202019790939202809362
:1013D0009102892B11F4F09294028091A602882345
:1013E00089F08091A70281110DC08091A402909193
:1013F000A50201979093A5028093A402892B11F472
:10140000F092A7028091A202882389F08091A30222
:1014100081110DC08091A0029091A102019790933B
:10142000A1028093A002892B11F4F092A302809173
:101430000C03882389F080910D0381110DC08091E8
:101440000A0390910B03019790930B0380930A0377
:10145000892B11F4F0920D0380910803882389F001
:101460008091090381110DC08091060390910703BB
:1014700001979093070380930603892B11F4F09250
:10148000090380910403882389F080910503811169
:101490000DC0809102039091030301979093030381
:1014A00080930203892B11F4F092050380910003CD
:1014B000882389F08091010381110DC08091FE0283
:1014C0009091FF0201979093FF028093FE02892B77
:1014D00011F4F09201038091FC02882389F080913D
:1014E000FD0281110DC08091FA029091FB020197DB
:1014F0009093FB028093FA02892B11F4F092FD0283
:101500008091F802882389F08091F90281110DC041
:101510008091F6029091F70201979093F7028093E1
:10152000F602892B11F4F092F9028091F4028823DB
:1015300089F08091F50281110DC08091F2029091A5
:10154000F30201979093F3028093F202892B11F436
:10155000F092F5020091F0021091F102380156E08C
:10156000650E711CC8010E940803C0907C02D090D7
:101570007D02837009F45AC06EE06C9DC0016D9DC0
:10158000900D1124DC01AC50BE4F4D01C8010E94EA
:10159000080380FF54C261E6C8010E94150420E0E0
:1015A00041E06CE2C8010E942003F801A580B12C43
:1015B000A501B301C4010E9452132EE02C9DF0013D
:1015C0002D9DF00D11249F0120513E4FD9011D96F4
:1015D000BC92AE921C97F80181819281A381B48163
:1015E000F90180839183A283B383FFEFCF1ADF0ACF
:1015F000D0927D02C0927C022AE0C216D10409F08A
:10160000B1CF10927D0210927C02ACCF9E3040F49C
:101610002850310981E001C0880F2A95EAF7B8CD3A
:101620002E503109F7CF81E791E076CE0091EE019F
:101630001091EF010C151D0509F00AC2812C912CA7
:1016400054018EEFC82E9EEFD92E29961FAE2997F2
:1016500080919602813009F0CEC58114BAEE9B06C6
:10166000A104B10409F490C28114EEEE9E06A10417
:10167000B10409F4BDC28091A802823009F044C0CF
:101680008091A902882309F43FC08091AA028111A8
:10169000D1C280E2809300019091ED028091EE0230
:1016A00090930101809302018091B3028093030122
:1016B000E09204012091AD029091AE028091AF02C0
:1016C0002093050190930601809307016091B10278
:1016D00070E090E080E08451934E0091F002109110
:1016E000F1027F6F28E030E040E051E00E94AD045D
:1016F0008091EC019091ED019093A5028093A4025A
:10170000F092A602F092AA0281143CEE9306A10484
:10171000B10409F05DC08981803209F059C080911F
:10172000A802811155C08091EF02811151C08885B6
:1017300090E0B0E0A0E0DC01992788274F8150E0DD
:1017400070E060E0762F652F542F4427840F951F9B
:10175000A61FB71F2E81820F911DA11DB11D809361
:10176000AD029093AE02A093AF02B093B002AC0171
:10177000BD014427662777274115EAEE5E0761051C
:10178000710511F0AC01BD018091D501882309F4E8
:1017900097C58091D6019091D701A091D801B091C1
:1017A000D90184179507A607B70709F089C58B816A
:1017B00090E0982F88272A81820F911D9093EE0246
:1017C0008093ED02C9970CF473C280E00E94E70099
:1017D0008091A802813039F48091A302882319F006
:1017E00080E00E94E7001091A802113081F58091FD
:1017F000A902882361F18114FBEE9F06A104B104C4
:1018000031F58091B1028C1122C08091B2028D110C
:101810001EC029812150330B87E0829FD001839F16
:10182000B00D1124AB54BD4FF10101900D928A957A
:10183000E1F78091B4028F5F8093B4029091B3027C
:10184000891305C081E00E94E7001093EF028091A8
:101850000E03823081F480910F03882361F081149C
:101860002CEE9206A104B10431F489818F3F19F462
:1018700080E00E948D0080910E03823081F480917F
:101880000F03882361F081143CEE9306A104B10498
:1018900031F48981833119F480E00E948D008091B8
:1018A0000E03823009F046C080910F03882309F4AB
:1018B00028C580911103811113C280E1809300013A
:1018C00090915303809154039093010180930201FE
:1018D0008091190380930301E09204012091130386
:1018E00090911403809115032093050190930601B4
:1018F000809307016091170370E090E080E08451CD
:10190000934E0091F0021091F10220911803722B76
:1019100028E030E040E051E00E94AD048091E00119
:101920009091E1019093070380930603F0920803DE
:10193000F092110381148CEE9806A104B10409F011
:101940004CC380919F028D1148C38981803109F079
:1019500044C3988564969FAF6497AF816596AFAF97
:101960006597EE8140910E030091F0021091F10213
:101970008D2D90E0B0E0A0E02D968CAF9DAFAEAF86
:10198000BFAF2D978C2D90E0B0E0A0E061968CAFBA
:101990009DAFAEAFBFAF6197411113C04B8150E017
:1019A000542F4427FA81DA01AF0FB11D6396BFAF00
:1019B000AEAF6397D9972CF4F0915503F13009F04D
:1019C00070C2E09200014091530350915403493397
:1019D00051050CF463C242E040930101E092020120
:1019E000E0920301E0920401E09305016596BFAD2A
:1019F0006597B09306016496EFAD6497E093070195
:101A00002D964CAC5DAC6EAC7FAC2D97F4E16F1AAB
:101A1000F3EE7F0A61962CAD3DAD4EAD5FAD6197A3
:101A2000942F832F722F6627642975298629972979
:101A300028E030E040E051E00E94AD04CEC281FFDA
:101A4000B4CD61E7C8010E94150420E042E0A9CDB1
:101A50003EE0309FB001319F700D1124FB01E05139
:101A6000FE4F40805180628073806C507E4F448571
:101A70005585C1010E9452130F5F1F4F0A30110597
:101A800009F019C41092EF011092EE01772777FC4C
:101A90007A95672D562D452D4A015B0191E0A922CB
:101AA000BB24C42CDB01CA01AA27BB270197A109CB
:101AB000B109DD24DA948F3F9F4EA105B10538F4BA
:101AC000D82C4A015B01882481E0A822BB249AEE2D
:101AD0009916C9F08114AEEE9A06A104B10409F476
:101AE0003FC0B8ED8B16BEEF9B06A104B104E9F12F
:101AF0008114ECEE9E06A104B10489F461E02996FC
:101B00006FAF2997A5CD8981FFEF8F1211C0811189
:101B100006C08A818E3E19F48B81882359F1809109
:101B20009F028D1115C0F3E02996FFAF299790CD44
:101B30008824AA24BB248111F2CF8A818E3E79F7B2
:101B40008B818111ECCF91E029969FAF299780CDB1
:101B50002FEFD21214C033E029963FAF299778CDEA
:101B600041E029964FAF299773CD51E029965FAF99
:101B700029976ECD81E029968FAF299769CDA2E094
:101B80002996AFAF299764CD2996FFAD2997F130FB
:101B900009F071CD898181116ECD8A818E3E09F067
:101BA0006ACD8B81811167CD60919F022FEFD21298
:101BB0000BC070E090E080E08251974E0091F002FF
:101BC0001091F1027F6F0DC06D1155CD6D2D70E03C
:101BD00090E080E08251974E0091F0021091F10266
:101BE0007C2928E030E043E151E00E94AD0443CD80
:101BF00060919F026C113FCDFE013996ABE1B1E0DF
:101C000092918E91981791F0981798F680E00E9423
:101C1000E70080E00E948D001092950210929602DB
:101C200063E171E08C2D0E94460625CD2E163F06FD
:101C300039F7BFCF8091A702882309F465CD809141
:101C4000B4028F5F8093B4028093E40187E0E5EBF8
:101C5000F2E0A5EEB1E001900D928A95E1F7609176
:101C6000B10270E090E080E08551934E0091F00267
:101C70001091F1027F6F28E030E044EE51E00E94C5
:101C8000AD049091B4028091B302981304C080E037
:101C90000E94E70039CD8091EC019091ED01909385
:101CA000A5028093A402F092A6021092A7022CCD66
:101CB000F092A802F092A902C092B102D092B202B0
:101CC0008C818093B3021092B4028091E2019091D2
:101CD000E3019093A1028093A002F092A20278CD3A
:101CE00080910903882371F1E092000143E0409361
:101CF0000101E0920201E0920301E09204012091CF
:101D00001303909114038091150320930501909380
:101D10000601809307016091170370E090E080E076
:101D20008451934E0091F0021091F102209118031A
:101D3000722B28E030E040E051E00E94AD0480E0EA
:101D40000E948D0081145CEE9506A104B104D9F4C3
:101D5000809117038D1117C089818131A1F41092F0
:101D60000703109206031092080310920903809152
:101D7000DE019091DF0190930B0380930A03F092B0
:101D80000C03F092120380911203882309F445C0DA
:101D900080910D03882309F440C0E0911A0381E08B
:101DA0008E0F80931A038093E40187E0E89FF0018F
:101DB0001124E55EFC4FA5EEB1E001900D928A95ED
:101DC000E1F76091170370E090E080E08551934E59
:101DD0000091F0021091F10220911803722B28E07B
:101DE00030E044EE51E00E94AD0490911A038091DE
:101DF0001903981346C010920B0310920A03109215
:101E00000C0310920D038091DC019091DD01909301
:101E1000F7028093F602F092F8028091F90288238B
:101E200009F488CDE092000163E060930101E09243
:101E30000201E0920301E0920401209113039091CA
:101E4000140380911503209305019093060180935C
:101E500007016091170370E090E080E08451934E99
:101E60000091F0021091F10220911803722B28E0EA
:101E700030E040E051E00E94AD0480E00E948D001F
:101E800059CD8091EC019091ED0190930B038093DB
:101E90000A03F0920C0310920D03BFCFF0920101E0
:101EA0009DCD64963FAD6497432E512C712C612CCF
:101EB00032015524442465964FAD6597842F90E0F8
:101EC000B0E0A0E0BA2FA92F982F8827840D951D88
:101ED000A61DB71D8E0F911DA11DB11D809313036B
:101EE00090931403A0931503B09316032C013D01A6
:101EF00044246624772441145AEE55066104710483
:101F000011F02C013D0161968CAD9DADAEADBFAD24
:101F10006197BA2FA92F982F882761968CAF9DAF14
:101F2000AEAFBFAF61972D962CAD3DAD4EAD5FAD61
:101F30002D974451534EBC01CD01622B732B842B42
:101F4000952BF091D501FF2309F4C3C12091D6014F
:101F50003091D7014091D8015091D9012415350510
:101F60004605570509F0B5C1F0920E03F0920F0334
:101F7000F0921203C0921703D09218032C81209381
:101F8000190310921A0363964EAD5FAD6397509399
:101F900054034093530334E0FE013596A4E0B1E0CE
:101FA00001900D923A95E1F731E1309300012093D1
:101FB0000101F0920201E092030128E030E040E0EC
:101FC00051E00E94AD048091DA019091DB01909381
:101FD000FF028093FE02F092000380910E03813095
:101FE00009F091C080910F03882309F48CC080917F
:101FF0000103882371F180E00E948D00E0920001CE
:1020000033E030930101E0920201E0920301E0929B
:1020100004012091130390911403809115032093E0
:10202000050190930601809307016091180370E009
:1020300090E080E08451934E0091F0021091F10203
:1020400020911703722B28E030E040E051E00E941D
:10205000AD0481144BEE9406A104B10409F053C001
:10206000809118038D114FC0809117038C114BC0C4
:1020700029812150330B87E0829FD001839FB00DCF
:102080001124A45EBC4FF10101900D928A95E1F7F5
:1020900080911A038F5F80931A039091190389131B
:1020A00032C093E19093000190915303909301010A
:1020B0001092020180930301E09204012091130326
:1020C00090911403809115032093050190930601CC
:1020D000809307016091180370E090E080E08451E4
:1020E000934E0091F0021091F10220911703722B90
:1020F00028E030E040E051E00E94AD0481E00E9421
:102100008D00F092550329965FAD2997511111C0AA
:102110008091EF02813009F05CC04091ED02509156
:10212000EE0265EB72E0C1010E94521380E00E9452
:10213000E70080917E0290917F02019690937F024A
:1021400080937E028838934109F0A5C080910E03E8
:1021500081113AC090919F028FE0FE01F996AEE0A6
:10216000B3E001900D928A95E1F7E0922A03E092A4
:102170002B03E0922C03E0922D03E0922E03E092D9
:102180002F03E09230032FE53AEE40E050E0209339
:1021900013033093140340931503509316034FE039
:1021A00050E050935403409353039093170383E3F9
:1021B0008093180353E05093190310921A0382E09E
:1021C00080930E03F0920F0310927F0210927E0212
:1021D00062C080915503813009F0ABCF4091530329
:1021E000509154036BE173E0C1010E94521380E0EF
:1021F0000E948D009ECF80919902882309F453C0DC
:1022000081146AEE9606A104B10459F529968FADA2
:102210002997813031F58981811123C08A818E3ED1
:1022200001F58B8181111DC09FEFD9121AC0E09179
:10223000890281E08E0F80938902F0E0EE0FFF1F8C
:10224000E75FFE4F2081318130939202209391020B
:102250002996AFAD2997A0939302853010F0109284
:102260008902809194028823B1F010929202109218
:10227000910210929302109294020091F002109138
:10228000F10228E030E043E151E06EEF7FEF8EEEA7
:1022900098E10E94AD0480E090E0892B09F464C8C5
:1022A0000E9400005DC8B1018C2D0E94460682305C
:1022B00009F43FCFF0CF1093EF010093EE01E6CB8E
:1022C0001092AD021092AE021092AF021092B002C4
:1022D0007FCAE092000142E040930101E0920201D6
:1022E000E0920301E0920401E093050165965FAD81
:1022F0006597509306016496AFAD6497A09307016C
:1023000097CB8114BCEE9B06A104B10409F0FBCE6F
:1023100018CBCF93DF93109259031092580388EE95
:1023200093E0A0E0B0E080935A0390935B03A09306
:102330005C03B0935D0387E391E090935703809330
:10234000560310926D0310926C0310926F0310925B
:102350006E03109271031092700310927303109227
:102360007203609174036E7F6D7F60937403669552
:10237000617081E068278FE00E94510161E08FE089
:102380000E949D01E9EAF0E0E491E0936603E5E94B
:10239000F0E0E491F0E0EE0FFF1FE458FF4F85916D
:1023A0009491909368038093670360E080E00E94BB
:1023B0009D018091740381FD04C061E080E00E9472
:1023C000510110926203EAE9F0E0E491E0936303C3
:1023D000E6E8F0E0E491F0E0EE0FFF1FE859FF4F70
:1023E00085919491909365038093640381E190E0DB
:1023F0000E942D12EC018AE0888B61E00E949D0111
:1024000061E088890E945101D093F102C093F002EB
:10241000DF91CF91089587E391E0909357038093E4
:1024200056038091D3019091D4018655934071F465
:10243000E0916903F0916A03908180916B0380952C
:10244000892380831092D4011092D3010895EE0F56
:10245000FF1F0590F491E02D09940F931F93CF93E4
:10246000DF938230910510F482E090E0E0917703F1
:10247000F091780330E020E0B0E0A0E0309799F4EC
:102480002115310509F44AC0281B390B24303105C8
:10249000D8F58A819B816115710589F1FB019383D0
:1024A0008283FE0111C0408151810281138148174E
:1024B0005907E0F04817590799F4109761F0129600
:1024C0000C93129713961C933296CF01DF91CF9104
:1024D0001F910F9108950093770310937803F4CF21
:1024E0002115310551F04217530738F0A901DB01DE
:1024F0009A01BD01DF01F801C1CFEF01F9CF90933F
:10250000780380937703CDCFFE01E20FF31F819311
:1025100091932250310939832883D7CF20917503B5
:1025200030917603232B41F420911D0130911E013F
:10253000309376032093750320911B0130911C0189
:102540002115310541F42DB73EB740911F0150913F
:102550002001241B350BE0917503F0917603E217FF
:10256000F307A0F42E1B3F0B2817390778F0AC01B6
:102570004E5F5F4F2417350748F04E0F5F1F509393
:10258000760340937503819391939FCFF0E0E0E051
:102590009CCFCF93DF930097E9F0FC013297138231
:1025A0001282A0917703B0917803ED0130E020E032
:1025B0001097A1F420813181820F931F2091750320
:1025C000309176032817390709F061C0F09376033C
:1025D000E0937503DF91CF910895EA01CE17DF07ED
:1025E000E8F54A815B819E0141155105B1F7E9018A
:1025F000FB83EA8349915991C40FD51FEC17FD075E
:1026000061F4808191810296840F951FE90199837D
:102610008883828193819B838A83F0E0E0E0129635
:102620008D919C9113970097B9F52D913C9111973D
:10263000CD010296820F931F20917503309176038E
:102640002817390739F6309751F510927803109210
:102650007703B0937603A0937503BCCFD383C28373
:1026600040815181840F951FC817D90761F44E5FCF
:102670005F4F88819981480F591F518340838A8118
:102680009B81938382832115310509F0B0CFF093AC
:102690007803E09377039ECFFD01DC01C0CF138266
:1026A0001282D7CFFB01DC0102C001900D92415094
:1026B0005040D8F7089510E0C2E6D0E004C0FE0113
:1026C0000E9427122196C336D107C9F7F894FFCF8D
:1026D000000000FFFFFF000000080009000A000CD6
:1026E000000F00FFFFFFFF0104FE90000079038050
:1026F000003040503132333435363738394041427A
:10270000434445000000006B022502FE026A02C736
:1027100002DD025202415244313933392045786199
:102720006D706C650043414E20436F6E74726F6C28
:102730006C657220496E6974204F4B2E0A0D0A0D8C
:102740000043414E20436F6E74726F6C6C65722053
:10275000496E6974204661696C65642E0A0D00003B
:00000001FF
