:020000040000FA
:100000000C944E010C9476010C9476010C945712CA
:100010000C9457120C9457120C9476010C947601A0
:100020000C9476010C9476010C9476010C94760174
:100030000C9476010C9476010C9476010C94760164
:100040000C940D120C9476010C9476010C947601AC
:100050000C9476010C9476010C9476010C94760144
:100060000C9476010C947601000000002400270017
:100070002A0000000008000201000003040700003D
:100080000000000000007E3336333A4F7028293AD2
:10009000737461742E636C61696D4661696C65642B
:1000A000007E3239383A4F7028293A50474E3D3D4C
:1000B00050474E5F414444524553535F434C41497E
:1000C0004D45443A636F6D706172654964733D3D9F
:1000D00030007E3531303A636C61696D4164647221
:1000E00028293A656C73653A7630373D3D66616C18
:1000F00073653A2174696D657231657870697265EE
:10010000643A6D79416464723D737461742E6D79E3
:10011000416464723A636F6D706172654964733DE6
:100120003D313A676574416E6F746865723D3D6636
:10013000616C7365007E3438353A636C61696D417A
:1001400064647228293A656C73653A7630373D3DB0
:1001500066616C73653A2174696D6572316578709A
:10016000697265643A6D79416464723D7374617457
:100170002E6D79416464723A636F6D706172654986
:1001800064733D3D30007E3436323A636C61696D94
:100190004164647228293A656C73653A2176303778
:1001A0003A2174696D657231657870697265643A77
:1001B00063616E436865636B4572726F723D3D317A
:1001C0003A7636343D3D643439007E3433393A630F
:1001D0006C61696D4164647228293A646566617571
:1001E0006C74537461743A7630373D3D66616C735C
:1001F000653A676574416E6F746865723D3D66610E
:100200006C7365007E3433373A636C61696D4164A9
:10021000647228293A6A31393339537461742E76FD
:1002200030373A66616C73652C20676574416E6F78
:10023000746865723A74727565007E3430393A6359
:100240006C61696D4164647228293A737461742E1B
:10025000636C61696D4661696C6564000000000053
:1002600023002600290000000000250028002B00A4
:10027000040404040404040402020202020203034C
:100280000303030301020408102040800102040854
:100290001020010204081020EF12E71211241FBEE3
:1002A000CFEFD8E0DEBFCDBF11E0A0E0B1E0E0EEDF
:1002B000FBE202C005900D92A23EB107D9F723E000
:1002C000A2EEB1E001C01D92A83EB207E1F711E035
:1002D000CDE4D1E004C02197FE010E94AF14CC34DC
:1002E000D107C9F70E940D130C94E3150C9400007C
:1002F00090919E039E3F19F481E080939B0380912F
:100300009B03811106C09093A20381E080939B031D
:10031000089550919F035E3F11F480E0089530915D
:10032000A0033E3FD1F32091A2032E3F21F0409144
:10033000A10341110FC05093A20321E02093A10318
:100340002091A203921305C0931738F79F5F9093F3
:10035000A203089580E0231798F72F5F2093A2034C
:10036000842FEECF81111DC01092510310925203C1
:100370001092530310925603109257031092580391
:10038000109259038FEF80935A0380935B0310926E
:100390005C0310925D0310929703109296031092E3
:1003A000980310924E0310924D0310924F03109237
:1003B000500310924A031092490310924B0310927B
:1003C0004C03089581111FC0109201031092020383
:1003D0001092040310920503109206031092070373
:1003E00010920803109209038FEF80930A03809301
:1003F0000B0310920C0310920D03109247031092FE
:100400004603109248031092FE021092FD021092D1
:10041000FF02109200031092FA021092F902109259
:10042000FB021092FC021092F6021092F50210925A
:10043000F7021092F8021092F2021092F10210925A
:10044000F3021092F4021092EE021092ED0210925A
:10045000EF021092F0021092EA021092E90210925A
:10046000EB021092EC021092E6021092E50210925A
:10047000E7021092E8020895CF92DF92EF92FF9286
:100480000F931F936B017C01CC24EE24FF24C11435
:100490002AEED206E104F10411F06B017C01809197
:1004A000D402882379F081E00091D5021091D60220
:1004B0002091D7023091D8020C151D052E053F055D
:1004C00009F080E01F910F91FF90EF90DF90CF90A7
:1004D0000895CF93DF93FC01138E128E118E108E30
:1004E000178A168A8DEC90E0958F848F84858631EB
:1004F000E0F525E530E0378B268B2BEC30E0318FB3
:10050000208F20E930E0338F228F9091680088306F
:1005100008F456C021E08E3008F420E081E001C0EC
:10052000880F2A95EAF7892B8093680094852DE639
:1005300030E0983050F02BE630E09E3030F02CE682
:1005400030E0963110F030E020E0348B238B292FFF
:1005500030E09830B8F581E001C0880F9A95EAF74D
:10056000858B848D958D0197F1F7828D938D892BE5
:1005700021F1A0912E02B0912F02EA17FB07E9F0BA
:10058000109751F05396CD91DC91549798815596E0
:100590008C91809589238883868D8E7F868F10929B
:1005A0002D0210922C02F0932F02E0932E02A389C9
:1005B000B4898C919589892B8C93DF91CF91089583
:1005C00084E0B1CF9E3040F42850310981E001C071
:1005D000880F2A95EAF7C4CF2E503109F7CF90E063
:1005E000FC01EE58FF4F2491FC01EC57FD4F349174
:1005F000FC01E059FD4FE491EE23C9F0222339F0CC
:10060000233001F1A8F4213019F1223029F1F0E072
:10061000EE0FFF1FEA59FD4FA591B4918FB7F894E3
:10062000EC91611126C030953E233C938FBF089515
:100630002730A9F02830C9F0243049F78091800094
:100640008F7D03C0809180008F7780938000DFCF03
:1006500084B58F7784BDDBCF84B58F7DFBCF809150
:10066000B0008F778093B000D2CF8091B0008F7DA3
:10067000F9CF3E2BDACFCF93DF9390E0FC01EC571C
:10068000FD4F249180599D4FFC0184918823D1F026
:1006900090E0880F991FFC01E859FF4FA591B49194
:1006A000FC01EA59FD4FC591D49161110EC09FB76D
:1006B000F8948C91E22FE0958E238C932881E2238D
:1006C000E8839FBFDF91CF9108958FB7F894EC91A5
:1006D000E22BEC938FBFF6CFCF93DF93EC011B821D
:1006E0001A8288EE93E0A0E0B0E08C839D83AE8315
:1006F000BF8380E391E0998388831F8A1E8A198EC5
:10070000188E1B8E1A8E1D8E1C8E6E8D6E7F6D7FC9
:100710006E8F6695617081E068278FE00E94EF021E
:1007200061E08FE00E943B03E3E9F2E0E491E88BB3
:10073000EFE7F2E0E491F0E0EE0FFF1FEA59FD4F22
:10074000859194919A8B898B60E080E00E943B03B5
:100750008E8D81FD04C061E080E00E94EF021C8666
:10076000E4E8F2E0E491ED87E0E7F2E0E491F0E024
:10077000EE0FFF1FE45AFD4F859194919F878E875E
:10078000DF91CF9108953FB7F8948091280290911E
:100790002902A0912A02B0912B0226B5A89B05C080
:1007A0002F3F19F00196A11DB11D3FBFBA2FA92FF0
:1007B000982F8827BC01CD01620F711D811D911DED
:1007C00042E0660F771F881F991F4A95D1F7089559
:1007D0008F929F92AF92BF92CF92DF92EF92FF9251
:1007E0004B015C010E94C3036B017C010E94C303A7
:1007F0006C197D098E099F09683E7340810591053A
:10080000A8F321E0821A9108A108B10888EEC80E69
:1008100083E0D81EE11CF11C81149104A104B104F1
:1008200029F7FF90EF90DF90CF90BF90AF909F900F
:100830008F900895AF92BF92CF92DF92EF92FF9286
:100840000F931F93CF93DF936C017B018B01040FF8
:10085000151FEB015E01AE18BF08C017D10759F094
:100860006991D601ED91FC910190F081E02DC601D6
:100870000995892B79F7C501DF91CF911F910F91D0
:10088000FF90EF90DF90CF90BF90AF9008952091B0
:100890002E0230912F022817390771F490912C0203
:1008A00080912D02981741F0E0912C02F0E0ED517B
:1008B000FE4F808190E008958FEF9FEF0895089597
:1008C000EF92FF920F931F93CF93DF93DC015C961F
:1008D000ED90FC905D97E114F10479F481E090E0F3
:1008E00013969C938E93129790E080E0DF91CF91C6
:1008F0001F910F91FF90EF9008955196ED91FC910B
:10090000529750968C915097982F90950FB75E966E
:100910002C915E97122F127021FD6095F894208122
:10092000112319F1282B2083E7012197F1F728E003
:10093000462F50E0308160FF1AC0382B3083E7012A
:100940002197F1F7BA0175956795215089F7112321
:1009500081F08081892380830FBF5C968D919C916B
:100960000197F1F781E090E0C1CF2923DCCF392353
:10097000E5CF9081892BEFCF20912E0230912F026D
:100980002817390761F480912D0220912C0290E004
:10099000805C9F4F821B91098F739927089590E087
:1009A00080E0089520912E0230912F0228173907F8
:1009B000B9F490912C0280912D02981789F0E09162
:1009C0002C02F0E0ED51FE4F808120912C0230E0AE
:1009D0002F5F3F4F2F73332720932C0290E0089511
:1009E0008FEF9FEF089590E080E008958EBD0000A6
:1009F0000DB407FEFDCF8EB508951F93CF93DF93FF
:100A0000EC0160E088890E94EF0280EA0E94F6040F
:100A100080E00E94F604182F61E088890E94EF02AE
:100A2000812FDF91CF911F910895FF920F931F9314
:100A3000CF93DF93EC01F62E042F122F60E088890C
:100A40000E94EF0285E00E94F6048F2D0E94F604BA
:100A5000802F0E94F604812F0E94F60461E08889AD
:100A6000DF91CF911F910F91FF900C94EF02DF92D5
:100A7000EF92FF920F931F93CF93DF937C01C62FCA
:100A8000D42E152F022F60E0FC0180890E94EF0216
:100A900082E00E94F6048C2F0E94F604CD2DD12F07
:100AA0000C0F1D2F111DC017D10721F089910E9435
:100AB000F604F9CF61E0F7018089DF91CF911F91B2
:100AC0000F91FF90EF90DF900C94EF020F931F9324
:100AD000CF93DF9300D000D0CDB7DEB7413021F502
:100AE0000C831B83890122273327402F440F440F97
:100AF000440F407E502F53705860452B4A8355E079
:100B0000169507955A95E1F7098324E0AE014F5FEA
:100B10005F4F0E9437050F900F900F900F90DF915D
:100B2000CF911F910F910895A80123E05695479505
:100B30002A95E1F749830295000F007E0A831C8203
:100B40001B82E3CF0F931F93CF93DF93EC01062F0C
:100B5000142F60E088890E94EF0282E00E94F60470
:100B6000802F0E94F604812F0E94F60461E088899C
:100B7000DF91CF911F910F910C94EF02DF92EF92D2
:100B8000FF920F931F93CF93DF937C01C62FD42E38
:100B9000152F022F60E0FC0180890E94EF0283E0A4
:100BA0000E94F6048C2F0E94F604CD2DD12F0C0F3D
:100BB0001D2F111DC017D10729F080E00E94F604F7
:100BC0008993F8CF61E0F7018089DF91CF911F9180
:100BD0000F91FF90EF90DF900C94EF021F93CF9353
:100BE000DF93EC01162F60E088890E94EF0283E01A
:100BF0000E94F604812F0E94F60480E00E94F60411
:100C0000182F61E088890E94EF02812FDF91CF9138
:100C10001F910895EF92FF920F931F93CF93DF934D
:100C200000D000D0CDB7DEB78C01F62EFC011082CB
:100C3000118212821382148224E0AE014F5F5F4F53
:100C40000E94BE052A818981F8E08F9FC00111248E
:100C5000422F50E065E0559547956A95E1F7840F7E
:100C6000951F092E000CAA0BBB0BF8018183928300
:100C7000A383B48323FF24C032E0880F991FAA1FE7
:100C8000BB1F3A95D1F72370820F911DA11DB11D95
:100C9000BA2FA92F982F88272B81820F911DA11D74
:100CA000B11DBA2FA92F982F88272C81820F911D53
:100CB000A11DB11D81839283A383B48381E08083CE
:100CC0006FEF6F0DC8010E94EE05E82E64E06F0D16
:100CD000C8010E94EE05F8018583E3FE19C091E08A
:100CE0009687282F2F70F8012583A8014A5F5F4F50
:100CF00065E06F0DC8010E94BE050F900F900F9028
:100D00000F90DF91CF911F910F91FF90EF90089579
:100D10001686E7CF0F931F93CF938C01C62F262FF4
:100D200040EE6FE00E9415056FE0C8010E94EE05DD
:100D3000982F907E81E09C1301C080E0CF911F919D
:100D40000F9108954F925F926F927F928F929F9230
:100D5000AF92BF92CF92DF92EF92FF920F931F93C9
:100D6000CF93DF9300D01F92CDB7DEB7780131E08B
:100D7000F801308361837283838394832583FA012E
:100D8000D8011696CA0108965D0121912D93E817A6
:100D9000F907D9F710E000E04090210150902201BE
:100DA000609023014E01F4E08F0E911C49825A821B
:100DB0006B82CE0101966C01F60171906F01672D77
:100DC000C7010E94EE0583FD0BC0739480E00F5FA6
:100DD0001F4F823059F40233110541F791E044C0AE
:100DE000C814D90449F7712C82E0F1CF0233110500
:100DF000A9F3F7012581A50165E0670DC7010E94F0
:100E00003705F7018685813019F4858180648583F3
:100E1000F701458164E0670DC7010E94A205F70153
:100E200001811281238134814081672DC7010E9495
:100E3000660528E048E06FEF670DC7010E941505C1
:100E400010E000E00F5F1F4F672DC7010E94EE0505
:100E5000982F987083FF04C00233110599F7BECF15
:100E60000233110509F4BACF892F0F900F900F901C
:100E7000DF91CF911F910F91FF90EF90DF90CF9076
:100E8000BF90AF909F908F907F906F905F904F90AA
:100E900008950F931F93CF93DF93EC0110924502B7
:100EA000109244021092D3021092D2021FB7F8940B
:100EB0008091E201811127C0EAE7F2E08491EEE837
:100EC000F2E09491E82FF0E0EE0FFF1FE859FF4F9A
:100ED000A591B491EC91E92321F461E08AE00E94AC
:100EE000EF0261E08AE00E943B038CB580618CBD1B
:100EF0008CB580648CBD61E08DE00E943B0361E0B5
:100F00008BE00E943B038091E2018F5F8093E201BE
:100F10001FBF60E088890E94EF0280EC0E94F60407
:100F200061E088890E94EF026AE070E080E090E072
:100F30000E94E80360E8CE010E948A0691E08111D8
:100F400087C041E46AE2CE010E94A20541EF69E256
:100F5000CE010E94A20545E868E2CE010E94A205EA
:100F600000E010E0980141E060E2CE010E946605D9
:100F700000E010E0980141E064E2CE010E946605C5
:100F800000E010E0980141E060E0CE010E946605BB
:100F900000E010E0980140E064E0CE010E946605A8
:100FA00000E010E0980141E068E0CE010E94660593
:100FB00000E010E0980140E060E1CE010E9466058B
:100FC00000E010E0980141E064E1CE010E94660576
:100FD00000E010E0980140E068E1CE010E94660563
:100FE00010E340E0612FCE010E94A20560E1610F95
:100FF00040E0CE010E94A20560E2610F40E0CE0118
:101000000E94A2051F5F1E3361F740E060E6CE013B
:101010000E94A20540E060E7CE010E94A20543E0E5
:101020006BE2CE010E94A20524E044E660E6CE0118
:101030000E94150520E040E660E7CE010E941505FC
:1010400060E0CE010E948A0691E0811101C090E02B
:10105000892FDF91CF911F910F910895FB0101908E
:101060000020E9F73197AF01461B570B0C941A0487
:101070008F929F92AF92BF92EF92FF920F931F9326
:10108000CF93DF93CDB7DEB7A1970FB6F894DEBF4D
:101090000FBECDBF7C01262F30E050E040E019A20A
:1010A0008E010F5D1F4F8AE0882E912CA12CB12C50
:1010B000CA01B901A50194010E948D14605DF80177
:1010C00062938F01211531054105510589F730974C
:1010D000E9F0BF01C7010E942E088C016EE371E0A8
:1010E000C7010E942E08800F911FA1960FB6F89499
:1010F000DEBF0FBECDBFDF91CF911F910F91FF904B
:10110000EF90BF90AF909F908F90089510E000E017
:10111000E5CF0F931F93CF93DF938C01D0E0C0E016
:10112000F801EC0FFD1F6491662341F085EC93E01C
:101130000E946004892B11F02196F2CF6EE371E0DA
:1011400085EC93E00E942E088C0F9D1FDF91CF91BC
:101150001F910F9108950F931F93CF93DF93D82F73
:101160008B0161E471E085EC93E00E942E086091B0
:10117000A20385EC93E00E94380880919D038823A8
:1011800059F08AE392E00E948908C3E08C2FDF9136
:10119000CF911F910F91089580919A03813009F4A6
:1011A00088C080919C03882369F18091E4028823A0
:1011B00039F11092E2021092E1021092E3021092D1
:1011C000E4026091A20370E090E080E08251974ECB
:1011D0000091A4031091A5037F6F28E030E043E164
:1011E00051E00E94A2068091DF029091E00290936C
:1011F000DC028093DB0281E08093DD0210929C038D
:10120000C1E0C4CF80919903811140C00E94780150
:10121000882321F184E092E00E9489086091A20372
:1012200070E090E080E08251974E0091A40310910D
:10123000A5037F6F28E030E043E151E00E94A20661
:101240008091DF029091E0029093DC028093DB02B8
:1012500081E08093DD0280939903D2CF8AEC91E004
:101260000E9489080091A4031091A50328E030E0B2
:1012700043E151E06EEF7FEF8EEE98E10E94A2060F
:1012800010929A0381E080939D037FCF8091DE02CC
:10129000882389F01092DC021092DB021092DD02AA
:1012A0001092DE028091A2038093A30381E08093D9
:1012B0009A03C2E06BCF6DE28091A4039091A503E5
:1012C0000E94EE05887F09F446C01092DC0210925D
:1012D000DB021092DD021092DE028091DA028F5F53
:1012E0008093DA028A30D9F586E891E00E94890875
:1012F00010929A0381E080939D03C3E08091A20342
:10130000D81344CFF8013896ABE1B1E092918E91B9
:10131000981709F446C0981708F44BC06D2F70E079
:1013200090E080E08251974E0091A4031091A503B4
:101330007F6F28E030E043E151E00E94A2068091F7
:10134000DF029091E0029093DC028093DB0281E067
:101350008093DD021BCF1092DA02C1E0CFCF8091E3
:10136000A4039091A5030E944907E091D90281E06E
:101370008E0F8093D902F0E0EE0FFF1FE75FFE4F64
:10138000208131813093E2022093E10291E0909339
:10139000E302853010F01092D90281E080939C0323
:1013A000DCCFE017F10709F0B1CF85E391E00E94AF
:1013B000890880E00E94B20180E00E94E2010E9460
:1013C00078016091A2038111AACF82ED90E048CF0D
:1013D000CF93DF93BC0186EA93E00E942E08EC01D4
:1013E0006EE371E086EA93E00E942E088C0F9D1F49
:1013F000DF91CF9108952F923F924F925F926F921B
:101400007F928F929F92AF92BF92CF92DF92EF9294
:10141000FF920F931F93CF93DF93CDB7DEB72A9739
:101420000FB6F894DEBF0FBECDBF4C013B015A870B
:1014300049873E832D831A830983FC82EB82D886F9
:10144000CF828091DD02882391F08091DE028111AC
:101450000EC08091DB029091DC0201979093DC0238
:101460008093DB02892B19F481E08093DE02809166
:10147000E302882391F08091E40281110EC08091F3
:10148000E1029091E20201979093E2028093E102DF
:10149000892B19F481E08093E40280914F03882323
:1014A00091F08091500381110EC080914D03909175
:1014B0004E03019790934E0380934D03892B19F4AB
:1014C00081E08093500380914B03882391F08091B9
:1014D0004C0381110EC08091490390914A030197FA
:1014E00090934A0380934903892B19F481E08093F8
:1014F0004C038091FF02882391F0809100038111B9
:101500000EC08091FD029091FE0201979093FE0221
:101510008093FD02892B19F481E080930003809170
:10152000FB02882391F08091FC0281110EC0809112
:10153000F9029091FA0201979093FA028093F902CE
:10154000892B19F481E08093FC028091F7028823B3
:1015500091F08091F80281110EC08091F502909176
:10156000F60201979093F6028093F502892B19F405
:1015700081E08093F8028091F302882391F08091BA
:10158000F40281110EC08091F1029091F202019754
:101590009093F2028093F102892B19F481E08093F9
:1015A000F4028091EF02882391F08091F002811182
:1015B0000EC08091ED029091EE0201979093EE02A1
:1015C0008093ED02892B19F481E08093F0028091E1
:1015D000EB02882391F08091EC0281110EC0809182
:1015E000E9029091EA0201979093EA028093E9025E
:1015F000892B19F481E08093EC028091E702882323
:1016000091F08091E80281110EC08091E5029091E5
:10161000E60201979093E6028093E502892B19F484
:1016200081E08093E802D3011D921D921D921C92CD
:101630001397ED81FE81118210828EEFA981BA810C
:101640008C93EB81FC818083AF81B8851C920091E3
:10165000A4031091A5035EE0552E1801B6E02B0EF1
:10166000311CC8010E94FD04E090D202F090D30228
:10167000837009F447C05E9CC0015F9C900D1124EB
:10168000FC01E65BFD4F5F01C8010E94FD0480FF85
:10169000AFC261E6C8010E940A0620E041E06CE2A8
:1016A000C8010E941505D8011596CC90D12CA60131
:1016B000B101C5010E94DA155E9CF0015F9CF00D3E
:1016C00011249F012A5B3D4FF901D586C486F8019C
:1016D00081819281A381B481F90180839183A28366
:1016E000B383FFEFEF1AFF0AF092D302E092D20227
:1016F0002AE0E216F10409F0B4CF1092D30210925E
:10170000D202AFCF009144021091450280E00E1545
:101710001F0509F476C08EE0809FB001819F700D97
:101720001124FB01EA5BFD4F44855585AD81BE81E7
:101730004D935C93C080D180E280F380665B7D4FE7
:1017400089859A850E94DA150F5F1F4F0A301105AF
:1017500009F457C21093450200934402D701C60111
:101760003AE1B595A795979587953A95D1F7877002
:101770009927AA27BB27EF81F8858083BB27F7FC31
:10178000BA95AF2D9E2D8D2DA170BB27F3018083BF
:101790009183A283B383AB81BC81CC928FEFE9812B
:1017A000FA818083D3014D915D916D917C91DB0134
:1017B000CA01AE7F0197A109B1098F3F9F4EA105D4
:1017C000B10578F4A981BA814C93F30180819181AC
:1017D000A281B3818827A170BB2780839183A283D4
:1017E000B383F30180819181A281B3819A3E09F490
:1017F00016C2883DFEEF9F07A105B10509F006C29C
:1018000081E0F401808364E571E085EC93E00E945F
:101810002E08D4016C9185EC93E00E943808F40105
:101820008081833059F4A981BA818C919091A3036E
:10183000891721F08F3F11F082E0808380919A0315
:10184000813009F069C5F30180819181A281B38162
:101850008115FAEE9F07A105B10509F4FAC18115BA
:101860009E4EA105B10509F42DC2EB81FC81A0803B
:10187000A981BA81BC90F301C080D180E280F3805D
:1018800080915103823009F046C080915203882331
:1018900009F441C080915303811144C280E28093D6
:1018A000000190919603809197039093010180939A
:1018B000020180915C03809303018FEF8093040108
:1018C000209156039091570380915803209305016E
:1018D000909306018093070160915A0370E090E0B5
:1018E00080E08451934E0091A4031091A5037F6F73
:1018F00028E030E040E051E00E94A20680914202E0
:101900009091430290934E0380934D0381E0809326
:101910004F0380935303C114FCEEDF06E104F1048E
:1019200009F04EC0A985BA858C91803209F048C073
:1019300080915103811144C080919803811140C06E
:1019400017968C9190E0B0E0A0E0DC019927882701
:10195000E985FA85468150E070E060E0762F652FDA
:10196000542F4427840F951FA61FB71F2581BC0144
:10197000CD01620F711D811D911D609356037093FF
:10198000570380935803909359030E943C02882385
:1019900009F422C2A985BA8512968C91129790E01B
:1019A000982F882711962C91820F911D9093970361
:1019B00080939603C9970CF4F4C180E00E94B201B1
:1019C00080915103813039F480914C03882319F0C0
:1019D00080E00E94B20110915103113099F580917D
:1019E0005203882379F1C114FBEEDF06E104F10410
:1019F00049F580915A03A81225C080915B03B81263
:101A000021C0A985BA858C918150990B27E0289F28
:101A1000D001299FB00D1124A25ABC4FE985FA8547
:101A200001900D922A95E1F780915D038F5F80937D
:101A30005D0390915C03891305C081E00E94B201AF
:101A40001093980380910103823091F480910203F6
:101A5000882371F0C114BCEEDB06E104F10441F40B
:101A6000E985FA8580818F3F19F480E00E94E201C8
:101A700080910103823091F480910203882371F0F8
:101A8000C114FCEEDF06E104F10441F4A985BA8536
:101A90008C91833119F480E00E94E201809101036E
:101AA000823009F048C080910203882309F4ADC454
:101AB00080910403811199C180E18093000190918C
:101AC0004603809147039093010180930201809126
:101AD0000C03809303018FEF809304012091060390
:101AE00090910703809108032093050190930601CC
:101AF0008093070160910A0370E090E080E08451D8
:101B0000934E0091A4031091A50320910B03722B17
:101B100028E030E040E051E00E94A20680913602C9
:101B2000909137029093FA028093F90281E08093BA
:101B3000FB0280930403C114FCEEDF06E104F10410
:101B400009F0ABC28091A303B812A7C2A985BA85D8
:101B50008C91803109F0A1C217966C911797169657
:101B60002C91169715967C912B2C312C512C412CB5
:101B7000B4E14B1AB3EE5B0A3A280091A40310912A
:101B8000A50380910103811110C0E985FA85828146
:101B900090E0982F88273181830F911DC9972CF4ED
:101BA00080914803813009F007C28FEF80930001D4
:101BB0008091460390914703C9970CF4FBC182E0E2
:101BC000809301018FEF8093020180930301809342
:101BD000040170930501209306016093070128E03A
:101BE00030E040E051E0C201B1010E94A20655C2BE
:101BF00081FF59CD61E7C8010E940A0620E042E05A
:101C00004ECD1092450210924402A8CD9D7F8115C1
:101C10009C4EA105B10509F4F3CD83E0F2CD8F3FD1
:101C200081F4A985BA858C918111F7CF11968C9199
:101C300011978E3E91F712968C91882309F4E0CD8E
:101C4000ECCF8827AA27BB2780839183A283B38305
:101C5000E8CFD4018C91813009F007CEE985FA856F
:101C60008081811102CE81818E3E09F0FECD82817C
:101C70008111FBCDA981BA818C916091A3038F3F23
:101C800059F470E090E080E08251974E0091A403F7
:101C90001091A5037F6F0FC06813E7CD70E090E04F
:101CA00080E08251974E0091A4031091A503EB812F
:101CB000FC812081722B28E030E043E151E00E945A
:101CC000A206D3CDAB81BC816C918091A303681334
:101CD000CCCDE985FA853896ABE1B1E092918E9151
:101CE0009817A1F0981768F680E00E94B20180E092
:101CF0000E94E2011092990310929A0363E171E04D
:101D0000AB81BC818C910E94AB08AFCD29853A850F
:101D10002E173F0719F781EA90E00E948908609129
:101D2000A303AFCF80915003882309F4F4CD8091B1
:101D30005D038F5F80935D0380933A0287E0EEE559
:101D4000F3E0ABE3B2E001900D928A95E1F7609188
:101D50005A0370E090E080E08551934E0091A40317
:101D60001091A5037F6F28E030E04AE352E00E9423
:101D7000A20690915D0380915C03981304C080E0FB
:101D80000E94B201C8CD809142029091430290938B
:101D90004E0380934D0381E080934F0310925003D4
:101DA000BACD21E02093510320935203A0925A030D
:101DB000B0925B03E985FA85838180935C0310927E
:101DC0005D03809138029091390290934A03809389
:101DD000490320934B03F4CD1092560310925703FE
:101DE0001092580310925903EBCD8091FC02882386
:101DF00079F18FEF8093000193E09093010180933C
:101E000002018093030180930401209106039091C5
:101E100007038091080320930501909306018093A6
:101E2000070160910A0370E090E080E08451934ED6
:101E30000091A4031091A50320910B03722B28E0BD
:101E400030E040E051E00E94A20680E00E94E20102
:101E5000C114BCEEDB06E104F104F1F480910A0345
:101E6000B8121AC0E985FA8580818131A9F41092EF
:101E7000FA021092F9021092FB021092FC02809179
:101E80003402909135029093FE028093FD0281E02E
:101E90008093FF028093050380910503882309F452
:101EA00046C080910003882309F441C0E0910D03EE
:101EB00081E08E0F80930D0380933A0287E0E89FC4
:101EC000F0011124E25FFC4FABE3B2E001900D9210
:101ED0008A95E1F760910A0370E090E080E0855117
:101EE000934E0091A4031091A50320910B03722B34
:101EF00028E030E04AE352E00E94A20690910D03F0
:101F000080910C03981348C01092FE021092FD02BB
:101F10001092FF02109200038091320290913302DE
:101F20009093EA028093E90281E08093EB02809132
:101F3000EC02882309F4FFCD8FEF8093000193E03A
:101F40009093010180930201809303018093040127
:101F500020910603909107038091080320930501C7
:101F6000909306018093070160910A0370E090E06E
:101F700080E08451934E0091A4031091A503209119
:101F80000B03722B28E030E040E051E00E94A206F3
:101F900080E00E94E201CFCD809142029091430205
:101FA0009093FE028093FD0281E08093FF021092E5
:101FB0000003BDCF81E004CE862F90E0B0E0A0E02A
:101FC000DC019927882730E050E040E0542F432F70
:101FD000322F2227820F931FA41FB51F9C01AD0132
:101FE000270F311D411D511DCA01B9016093060320
:101FF0007093070380930803909309030E943C02A7
:10200000882309F43CC131E030930103309302038B
:1020100030930503A0920A03B0920B03A985BA85F9
:1020200013968C91139780930C0310920D031296C4
:102030008C91129790E0982F882711962C911197E8
:10204000820F911D909347038093460388E0FD0122
:10205000A0E0B1E001900D928A95E1F781E18093D3
:1020600000018091030180930101309302018FEF01
:102070008093030128E030E040E051E0C201B1016B
:102080000E94A20680913002909131029093F20258
:102090008093F102B1E0B093F302809101038130AB
:1020A00009F097C080910203882309F492C08091BF
:1020B000F402882379F180E00E94E2018FEF80939F
:1020C000000193E09093010180930201809303014A
:1020D00080930401209106039091070380910803E7
:1020E00020930501909306018093070160910B03F3
:1020F00070E090E080E08451934E0091A403109131
:10210000A50320910A03722B28E030E040E051E063
:102110000E94A206C114FBEEDF06E104F10409F0FF
:1021200058C080910B03B81254C080910A03A812C2
:1021300050C0A985BA852C912150330B87E0829F2E
:10214000D001839FB00D1124A15FBC4FE985FA85B2
:1021500001900D928A95E1F780910D038F5F809336
:102160000D0390910C03891334C093E19093000107
:102170009091460390930101109202018093030114
:102180008FEF8093040120910603909107038091C3
:102190000803209305019093060180930701609145
:1021A0000B0370E090E080E08451934E0091A40313
:1021B0001091A50320910A03722B28E030E040E043
:1021C00051E00E94A20681E00E94E20181E080933A
:1021D0004803F4018081811138C0809198038130D7
:1021E00009F065C08091560390915703A091580360
:1021F000B0915903F30180839183A283B3838091CB
:10220000960390919703AD81BE818D939C938091AD
:102210005B03E981FA81808380915A03AB81BC81A1
:102220008C938FEFEF81F8858083409196035091D6
:1022300097036EE573E089859A850E94DA1580E040
:102240000E94B20183E0D4018C9382E02A960FB6FB
:10225000F894DEBF0FBECDBFDF91CF911F910F91DC
:10226000FF90EF90DF90CF90BF90AF909F908F90B6
:102270007F906F905F904F903F902F9008958FEFD9
:102280008093000192E0909301018093020180937A
:10229000030180930401E985FA8585818093050116
:1022A00086818093060187818093070198CC809175
:1022B0004803813051F68091060390910703A09165
:1022C0000803B0910903F30180839183A283B38350
:1022D0008091460390914703AD81BE818D939C937D
:1022E00080910B03E981FA81808380910A03AB819D
:1022F000BC818C938FEFEF81F885808340914603FA
:10230000509147036EE073E089859A850E94DA1543
:1023100080E00E94E20196CF80919D03882309F41A
:1023200055C086E890E00E948908F3018081918180
:10233000A281B38181159A4EA105B10559F5D40149
:102340009C91913039F5E985FA858081811122C00F
:1023500081818E3EF9F4828181111CC0A981BA81EC
:102360008C918F3FB9F4E091D90281E08E0F809378
:10237000D902F0E0EE0FFF1FE75FFE4F20813181B1
:102380003093E2022093E1029093E302853010F053
:102390001092D9028091E4028823B1F01092E202F7
:1023A0001092E1021092E3021092E4020091A40361
:1023B0001091A50328E030E043E151E06EEF7FEF9C
:1023C0008EEE98E10E94A20683E040CF69857A856F
:1023D000EB81FC8180812A960FB6F894DEBF0FBE98
:1023E000CDBFDF91CF911F910F91FF90EF90DF90C4
:1023F000CF90BF90AF909F908F907F906F905F90A5
:102400004F903F902F900C94AB08C114FCEEDF0668
:10241000E104F10409F0DDCE95CB1F920F920FB6C7
:102420000F9211242F933F938F939F93AF93BF935A
:102430008091240290912502A0912602B09127025A
:102440003091230223E0230F2D3758F50196A11D6B
:10245000B11D209323028093240290932502A09320
:102460002602B09327028091280290912902A09120
:102470002A02B0912B020196A11DB11D8093280262
:1024800090932902A0932A02B0932B02BF91AF919F
:102490009F918F913F912F910F900FBE0F901F90A2
:1024A000189526E8230F0296A11DB11DD2CF1F92C9
:1024B0000F920FB60F9211242F933F934F935F9378
:1024C0006F937F938F939F93AF93BF93EF93FF93FC
:1024D000E0912E02F0912F02309749F0A685B78542
:1024E0008585968D91FF14C09C918923A1F4FF915D
:1024F000EF91BF91AF919F918F917F916F915F917C
:102500004F913F912F910F900FBE0F901F901895F4
:102510009C91892361F7A389B4899C9185898095D1
:1025200089238C93868997890197F1F7608D718D46
:10253000A685B785558538E020E0CB010197F1F7F6
:10254000822F90E095958795282F4C91452309F08F
:102550002068315091F7868D81FD209580912D0264
:1025600090E001968F73992730912C02381799F0DB
:10257000A0912D02B0E0AD51BE4F2C9380932D025F
:10258000828D938D0197F1F7A389B4898C919589F8
:10259000892B8C93ACCF868D8160868FF1CFFC0127
:1025A00080E391E09183808380912E0290912F02AD
:1025B000E817F90759F4A389B4899C918589809516
:1025C00089238C9310922F0210922E02089586EA8E
:1025D00093E00E94CF1285EC93E00C94CF12CF933E
:1025E000DF9385EC93E00E946C0381E190E00E9410
:1025F000B514EC018AE0888B61E00E943B0361E046
:1026000088890E94EF02D093A503C093A40386EAB1
:1026100093E0DF91CF910C946C03CF93DF93CDB710
:10262000DEB762970FB6F894DEBF0FBECDBF7894C9
:1026300084B5826084BD84B5816084BD85B58260C7
:1026400085BD85B5816085BD80916E008160809378
:102650006E001092810080918100826080938100E1
:1026600080918100816080938100809180008160F1
:10267000809380008091B10084608093B10080914C
:10268000B00081608093B00080917A008460809374
:102690007A0080917A00826080937A0080917A003B
:1026A000816080937A0080917A00806880937A00BC
:1026B0001092C10086EA93E00E94690284E691E0EC
:1026C0000E94E80985EC93E00E9469021092DC0206
:1026D0001092DB021092DD021092DE021092E202F2
:1026E0001092E1021092E3021092E4028AEF90E06D
:1026F0009093E0028093DF021092D90288E090E08C
:1027000090930A018093090189E090E090930C0175
:1027100080930B018AE090E090930E0180930D016D
:102720008CE090E09093100180930F018FE090E097
:1027300090931201809311011092990310929A03C1
:1027400010929B0310929C0310929D038EEF809336
:102750009E0380939F038093A0031092A10390E8AF
:102760009093A2038093A3031092D4021092D502F7
:102770001092D6021092D7021092D80222E330E0D3
:1027800030934302209342028EEE92E090933902FE
:1027900080933802309335022093340228EC30E0E5
:1027A00030933702209336029093310280933002A7
:1027B00082EE94E0909333028093320280E00E9494
:1027C000B20180E00E94E2011092DA028091A4033B
:1027D0009091A5030E94490781119AC084E791E076
:1027E0000E94E80968EA71E086EA93E00E942E08F8
:1027F0001A8A19861A861B861C8688E0E4E2F1E0B4
:10280000DE01119601900D928A95E1F71E861D86D4
:102810000EEF098B088B1FEF1F8763EB71E085ECD0
:1028200093E00E942E0880E880939E0381E88093C5
:102830009F0382EF8093A003109313011093140160
:10284000109315011093160111E01093170184E005
:10285000809318010093190180E980931A0165ECB7
:102860007DEF80E090E00E943C02811112C08091D7
:10287000D40281110EC01093D40285EC9DEFA0E02C
:10288000B0E08093D5029093D602A093D702B09384
:10289000D80288EBA82E8BE0B82E68EC71E085ECAE
:1028A00093E00E942E08CE010F966C0101967C01E8
:1028B0008E010F5E1F4F9E01235F3F4FAE014F5FA2
:1028C0005F4FBE01675F7F4F02960E94FB09182F82
:1028D00091E0A91AB108F9F0833041F061E070E0AD
:1028E00080E090E00E94E8031230B9F6612F86EA9A
:1028F00093E00E9438086BEC71E086EA93E00E9456
:102900002E086091A30386EA93E00E943808FFCF67
:102910008CE891E065CF14E0E9CFA1E21A2EAA1B62
:10292000BB1BFD010DC0AA1FBB1FEE1FFF1FA2177F
:10293000B307E407F50720F0A21BB30BE40BF50B7C
:10294000661F771F881F991F1A9469F76095709505
:10295000809590959B01AC01BD01CF010895EE0FCC
:10296000FF1F0590F491E02D09940F931F93CF93CF
:10297000DF938230910510F482E090E0E091E6036D
:10298000F091E70330E020E0B0E0A0E0309799F468
:102990002115310509F44AC0281B390B24303105B3
:1029A000D8F58A819B816115710589F1FB019383BB
:1029B0008283FE0111C04081518102811381481739
:1029C0005907E0F04817590799F4109761F01296EB
:1029D0000C93129713961C933296CF01DF91CF91EF
:1029E0001F910F9108950093E6031093E703F4CF2E
:1029F0002115310551F04217530738F0A901DB01C9
:102A00009A01BD01DF01F801C1CFEF01F9CF909329
:102A1000E7038093E603CDCFFE01E20FF31F81931E
:102A200091932250310939832883D7CF2091E40331
:102A30003091E503232B41F420911D0130911E01BB
:102A40003093E5032093E40320911B0130911C0196
:102A50002115310541F42DB73EB740911F0150912A
:102A60002001241B350BE091E403F091E503E2170C
:102A7000F307A0F42E1B3F0B2817390778F0AC01A1
:102A80004E5F5F4F2417350748F04E0F5F1F50937E
:102A9000E5034093E403819391939FCFF0E0E0E05E
:102AA0009CCFCF93DF930097E9F0FC01329713821C
:102AB0001282A091E603B091E703ED0130E020E03F
:102AC0001097A1F420813181820F931F2091E4039C
:102AD0003091E5032817390709F061C0F093E50349
:102AE000E093E403DF91CF910895EA01CE17DF0769
:102AF000E8F54A815B819E0141155105B1F7E90175
:102B0000FB83EA8349915991C40FD51FEC17FD0748
:102B100061F4808191810296840F951FE901998368
:102B20008883828193819B838A83F0E0E0E0129620
:102B30008D919C9113970097B9F52D913C91119728
:102B4000CD010296820F931F2091E4033091E5039B
:102B50002817390739F6309751F51092E70310928C
:102B6000E603B093E503A093E403BCCFD383C28311
:102B700040815181840F951FC817D90761F44E5FBA
:102B80005F4F88819981480F591F518340838A8103
:102B90009B81938382832115310509F0B0CFF09397
:102BA000E703E093E6039ECFFD01DC01C0CF138273
:102BB0001282D7CFFB01DC0102C001900D9241507F
:102BC0005040D8F7089511E0CDE4D1E004C0FE01F3
:102BD0000E94AF142196CE34D107C9F7F894FFCFE5
:102BE000000000FFFFFF000000080009000A000CC1
:102BF000000F00FFFFFFFF0104FE900000E80380CC
:102C000000304050FFFFFFFFFFFFFFFF000000000C
:102C100060041A04F3045F04BC04D20447040D0AE0
:102C200000636C61696D4164647265733A6D4164FF
:102C300064723A004F7065726174653A6E4D7367E5
:102C400049643A0041524431393339204578616D45
:102C5000706C650043414E20436F6E74726F6C6CF4
:102C6000657220496E6974204F4B2E0043414E20FF
:102C7000436F6E74726F6C6C657220496E6974205C
:102C80004661696C65642E006A31393339496E6971
:102C9000743A00656E746572206A31393339496E51
:102CA00069742028394929003949006A3139333992
:102CB00020536F7572636520416464726573733A63
:022CC000000012
:107E0000112484B714BE81FFF0D085E080938100F7
:107E100082E08093C00088E18093C10086E0809377
:107E2000C20080E18093C4008EE0C9D0259A86E02C
:107E300020E33CEF91E0309385002093840096BBD3
:107E4000B09BFECF1D9AA8958150A9F7CC24DD24C4
:107E500088248394B5E0AB2EA1E19A2EF3E0BF2EE7
:107E6000A2D0813461F49FD0082FAFD0023811F036
:107E7000013811F484E001C083E08DD089C08234E0
:107E800011F484E103C0853419F485E0A6D080C0E4
:107E9000853579F488D0E82EFF2485D0082F10E0AE
:107EA000102F00270E291F29000F111F8ED06801E7
:107EB0006FC0863521F484E090D080E0DECF843638
:107EC00009F040C070D06FD0082F6DD080E0C81688
:107ED00080E7D80618F4F601B7BEE895C0E0D1E017
:107EE00062D089930C17E1F7F0E0CF16F0E7DF06D8
:107EF00018F0F601B7BEE89568D007B600FCFDCFD4
:107F0000A601A0E0B1E02C9130E011968C91119780
:107F100090E0982F8827822B932B1296FA010C0160
:107F200087BEE89511244E5F5F4FF1E0A038BF0790
:107F300051F7F601A7BEE89507B600FCFDCF97BE46
:107F4000E89526C08437B1F42ED02DD0F82E2BD052
:107F50003CD0F601EF2C8F010F5F1F4F84911BD097
:107F6000EA94F801C1F70894C11CD11CFA94CF0C13
:107F7000D11C0EC0853739F428D08EE10CD085E9AC
:107F80000AD08FE07ACF813511F488E018D01DD067
:107F900080E101D065CF982F8091C00085FFFCCF94
:107FA0009093C60008958091C00087FFFCCF809118
:107FB000C00084FD01C0A8958091C6000895E0E648
:107FC000F0E098E1908380830895EDDF803219F02E
:107FD00088E0F5DFFFCF84E1DECF1F93182FE3DFCA
:107FE0001150E9F7F2DF1F91089580E0E8DFEE27F6
:047FF000FF270994CA
:027FFE00040479
:00000001FF
